{
  "contractName": "ErosDiscoveryProtocol",
  "abi": [
    {
      "constant": false,
      "inputs": [
        {
          "name": "_token",
          "type": "address"
        },
        {
          "name": "_value",
          "type": "uint256"
        }
      ],
      "name": "depositTokenBounty",
      "outputs": [
        {
          "name": "success",
          "type": "bool"
        }
      ],
      "payable": false,
      "stateMutability": "nonpayable",
      "type": "function"
    },
    {
      "constant": false,
      "inputs": [
        {
          "name": "_value",
          "type": "uint256"
        }
      ],
      "name": "ErosJuridistiction",
      "outputs": [
        {
          "name": "success",
          "type": "bool"
        }
      ],
      "payable": false,
      "stateMutability": "nonpayable",
      "type": "function"
    },
    {
      "constant": true,
      "inputs": [
        {
          "name": "orderAddresses1",
          "type": "address[6]"
        },
        {
          "name": "orderValues1",
          "type": "uint256[6]"
        },
        {
          "name": "v1",
          "type": "uint8"
        },
        {
          "name": "r1",
          "type": "bytes32"
        },
        {
          "name": "s1",
          "type": "bytes32"
        },
        {
          "name": "orderAddresses2",
          "type": "address[6]"
        },
        {
          "name": "orderValues2",
          "type": "uint256[6]"
        },
        {
          "name": "v2",
          "type": "uint8"
        },
        {
          "name": "r2",
          "type": "bytes32"
        },
        {
          "name": "s2",
          "type": "bytes32"
        }
      ],
      "name": "settleMatchProposal",
      "outputs": [
        {
          "name": "success",
          "type": "bool"
        }
      ],
      "payable": false,
      "stateMutability": "view",
      "type": "function"
    },
    {
      "constant": false,
      "inputs": [
        {
          "name": "_value",
          "type": "uint256"
        },
        {
          "name": "_maker1",
          "type": "address"
        },
        {
          "name": "_maker2",
          "type": "address"
        }
      ],
      "name": "bountyWithdrawEther",
      "outputs": [
        {
          "name": "success",
          "type": "bool"
        }
      ],
      "payable": false,
      "stateMutability": "nonpayable",
      "type": "function"
    },
    {
      "constant": true,
      "inputs": [
        {
          "name": "_token",
          "type": "address"
        },
        {
          "name": "_maker1",
          "type": "address"
        },
        {
          "name": "_maker2",
          "type": "address"
        },
        {
          "name": "r1",
          "type": "bytes32"
        },
        {
          "name": "s1",
          "type": "bytes32"
        },
        {
          "name": "orderAddresses2",
          "type": "address[5]"
        },
        {
          "name": "orderValues2",
          "type": "uint256[6]"
        },
        {
          "name": "v2",
          "type": "uint8"
        },
        {
          "name": "r2",
          "type": "bytes32"
        },
        {
          "name": "s2",
          "type": "bytes32"
        }
      ],
      "name": "bountyClaimToken",
      "outputs": [
        {
          "name": "success",
          "type": "bool"
        }
      ],
      "payable": false,
      "stateMutability": "view",
      "type": "function"
    },
    {
      "anonymous": false,
      "inputs": [
        {
          "indexed": true,
          "name": "orderAddresses",
          "type": "address[6]"
        },
        {
          "indexed": false,
          "name": "orderValues",
          "type": "uint256[6]"
        }
      ],
      "name": "getOrderHash",
      "type": "function",
      "constant": true,
      "outputs": [
        {
          "name": "",
          "type": "bytes32"
        }
      ],
      "payable": false,
      "stateMutability": "view"
    },
    {
      "anonymous": false,
      "inputs": [
        {
          "indexed": true,
          "name": "_token",
          "type": "address"
        },
        {
          "indexed": false,
          "name": "_value",
          "type": "uint256"
        },
        {
          "name": "v",
          "type": "uint8"
        },
        {
          "name": "r",
          "type": "bytes32"
        },
        {
          "name": "s",
          "type": "bytes32"
        }
      ],
      "name": "bountyWithdrawRequest",
      "type": "function",
      "constant": false,
      "outputs": [
        {
          "name": "success",
          "type": "bool"
        }
      ],
      "payable": false,
      "stateMutability": "nonpayable"
    },
    {
      "anonymous": false,
      "inputs": [
        {
          "indexed": true,
          "name": "signer",
          "type": "address"
        },
        {
          "indexed": true,
          "name": "hash",
          "type": "bytes32"
        },
        {
          "indexed": false,
          "name": "v",
          "type": "uint8"
        },
        {
          "name": "r",
          "type": "bytes32"
        },
        {
          "name": "s",
          "type": "bytes32"
        }
      ],
      "name": "isValidSignature",
      "type": "function",
      "constant": true,
      "outputs": [
        {
          "name": "success",
          "type": "bool"
        }
      ],
      "payable": false,
      "stateMutability": "view"
    },
    {
      "anonymous": false,
      "inputs": [
        {
          "indexed": false,
          "name": "token",
          "type": "address"
        },
        {
          "indexed": true,
          "name": "user",
          "type": "address"
        },
        {
          "indexed": false,
          "name": "_value",
          "type": "uint256"
        },
        {
          "indexed": false,
          "name": "balance",
          "type": "uint256"
        }
      ],
      "name": "depositEtherBounty",
      "type": "function",
      "constant": false,
      "outputs": [
        {
          "name": "success",
          "type": "bool"
        }
      ],
      "payable": true,
      "stateMutability": "payable"
    },
    {
      "anonymous": false,
      "inputs": [
        {
          "indexed": false,
          "name": "orderAddresses",
          "type": "address[5]"
        },
        {
          "indexed": true,
          "name": "orderValues",
          "type": "uint256[6]"
        },
        {
          "indexed": false,
          "name": "_value",
          "type": "uint256"
        },
        {
          "indexed": false,
          "name": "balance",
          "type": "uint256"
        }
      ],
      "name": "owner",
      "type": "function",
      "constant": true,
      "outputs": [
        {
          "name": "",
          "type": "address"
        }
      ],
      "payable": false,
      "stateMutability": "view"
    },
    {
      "anonymous": false,
      "inputs": [
        {
          "indexed": false,
          "name": "",
          "type": "address"
        },
        {
          "indexed": true,
          "name": "",
          "type": "address"
        },
        {
          "indexed": false,
          "name": "_value",
          "type": "uint256"
        },
        {
          "indexed": false,
          "name": "balance",
          "type": "uint256"
        }
      ],
      "name": "bounties",
      "type": "function",
      "constant": true,
      "outputs": [
        {
          "name": "",
          "type": "uint256"
        }
      ],
      "payable": false,
      "stateMutability": "view"
    },
    {
      "constant": false,
      "inputs": [
        {
          "name": "_token",
          "type": "address"
        },
        {
          "name": "_value",
          "type": "uint256"
        }
      ],
      "name": "bountyWithdrawToken",
      "outputs": [
        {
          "name": "success",
          "type": "bool"
        }
      ],
      "payable": false,
      "stateMutability": "nonpayable",
      "type": "function"
    },
    {
      "anonymous": false,
      "inputs": [
        {
          "indexed": false,
          "name": "token",
          "type": "address"
        },
        {
          "indexed": true,
          "name": "user",
          "type": "address"
        },
        {
          "indexed": false,
          "name": "_value",
          "type": "uint256"
        },
        {
          "indexed": false,
          "name": "balance",
          "type": "uint256"
        }
      ],
      "name": "BountyDeposit",
      "type": "event"
    },
    {
      "anonymous": false,
      "inputs": [
        {
          "indexed": false,
          "name": "token",
          "type": "address"
        },
        {
          "indexed": true,
          "name": "user",
          "type": "address"
        },
        {
          "indexed": false,
          "name": "_value",
          "type": "uint256"
        },
        {
          "indexed": false,
          "name": "balance",
          "type": "uint256"
        }
      ],
      "name": "BountyWithdrawRequest",
      "type": "event"
    },
    {
      "anonymous": false,
      "inputs": [
        {
          "indexed": false,
          "name": "token",
          "type": "address"
        },
        {
          "indexed": true,
          "name": "user",
          "type": "address"
        },
        {
          "indexed": false,
          "name": "_value",
          "type": "uint256"
        },
        {
          "indexed": false,
          "name": "balance",
          "type": "uint256"
        }
      ],
      "name": "BountyWithdraw",
      "type": "event"
    },
    {
      "anonymous": false,
      "inputs": [
        {
          "indexed": false,
          "name": "matcher",
          "type": "address"
        },
        {
          "indexed": false,
          "name": "maker",
          "type": "address"
        },
        {
          "indexed": false,
          "name": "taker",
          "type": "address"
        }
      ],
      "name": "MatchFound",
      "type": "event"
    },
    {
      "anonymous": false,
      "inputs": [
        {
          "indexed": false,
          "name": "matcher",
          "type": "address"
        },
        {
          "indexed": false,
          "name": "maker",
          "type": "address"
        },
        {
          "indexed": false,
          "name": "taker",
          "type": "address"
        },
        {
          "indexed": false,
          "name": "bounty",
          "type": "uint256"
        }
      ],
      "name": "BountyClaimed",
      "type": "event"
    }
  ],
  "bytecode": "0x60606040526006805463ffffffff1916610708179055341561002057600080fd5b6112148061002f6000396000f3006060604052361561009e5763ffffffff60e060020a6000350416630f2050a081146100a35780631068fafe146100d95780632693427f146100ee5780634271d6c9146101c357806343e15d51146101d957806363e303e3146102045780637b9058c0146102775780638163681e14610299578063862786ca146102c75780638da5cb5b146102cf578063d7308a2e146102fe578063dcf15fe914610323575b600080fd5b34156100ae57600080fd5b6100c5600160a060020a0360043516602435610345565b604051901515815260200160405180910390f35b34156100e457600080fd5b6100ec6104a6565b005b34156100f957600080fd5b6100c5600460c481600660c06040519081016040529190828260c080828437820191505050505091908060c001906006806020026040519081016040529190828260c08082843750939560ff86351695602081013595506040808201359550919350610120810192506060019060069060c090519081016040529190828260c080828437820191505050505091908060c001906006806020026040519081016040529190828260c080828437509395505050823560ff1692602081013592506040013590506104d0565b34156101ce57600080fd5b6100c560043561089f565b34156101e457600080fd5b6100c5600160a060020a0360043581169060243581169060443516610a25565b341561020f57600080fd5b610265600460c481600660c06040519081016040529190828260c080828437820191505050505091908060c001906006806020026040519081016040529190828260c08082843750939550610c05945050505050565b60405190815260200160405180910390f35b341561028257600080fd5b6100c5600160a060020a0360043516602435610ccc565b34156102a457600080fd5b6100c5600160a060020a036004351660243560ff60443516606435608435610dbd565b6100c5610e85565b34156102da57600080fd5b6102e2610f44565b604051600160a060020a03909116815260200160405180910390f35b341561030957600080fd5b610265600160a060020a0360043581169060243516610f53565b341561032e57600080fd5b6100c5600160a060020a0360043516602435610f70565b600080821161035357600080fd5b82600160a060020a03166323b872dd33308560006040516020015260405160e060020a63ffffffff8616028152600160a060020a0393841660048201529190921660248201526044810191909152606401602060405180830381600087803b15156103bd57600080fd5b6102c65a03f115156103ce57600080fd5b5050506040518051905015156103e357600080fd5b600160a060020a03808416600090815260016020908152604080832033909416835292905220546104149083611172565b600160a060020a03848116600090815260016020908152604080832033909416808452939091529081902083905590917fef09e15e9cfe21e04726b36e796649729fe37c3578ac2024cf82957bfd631d819186918691518084600160a060020a0316600160a060020a03168152602001838152602001828152602001935050505060405180910390a250600192915050565b6000805473ffffffffffffffffffffffffffffffffffffffff191633600160a060020a0316179055565b60006104da6111b1565b6104e26111b1565b604080519081016040528060808e015181526020016105018f8f610c05565b905291506040805190810160405280608089015181526020016105248a8a610c05565b9052905061053a8d5183602001518d8d8d610dbd565b151561054557600080fd5b61055788518260200151888888610dbd565b151561056257600080fd5b600060208e0151600160a060020a031614801561058c575060006020890151600160a060020a0316145b151561059757600080fd5b60008c511180156105ac5750600060208d0151115b15156105b757600080fd5b600087511180156105cc575060006020880151115b15156105d757600080fd5b81514210156105e557600080fd5b80514210156105f357600080fd5b8b5160408e0151600160a060020a03166370a082318f5160006040516020015260405160e060020a63ffffffff8416028152600160a060020a039091166004820152602401602060405180830381600087803b151561065157600080fd5b6102c65a03f1151561066257600080fd5b505050604051805190501015151561067957600080fd5b86516040890151600160a060020a03166370a082318a5160006040516020015260405160e060020a63ffffffff8416028152600160a060020a039091166004820152602401602060405180830381600087803b15156106d757600080fd5b6102c65a03f115156106e857600080fd5b50505060405180519050101515156106ff57600080fd5b6060880151600160a060020a031660408e0151600160a060020a0316148015610741575060608d0151600160a060020a03166040890151600160a060020a0316145b151561074c57600080fd5b61075f8c518d60015b6020020151611188565b6007556107726020880151886000610755565b60088190556007541161078457600080fd5b60a0880151600160a060020a031660a08e0151600160a060020a0316146107aa57600080fd5b33600560008f51600160a060020a03908116825260208201929092526040016000908120805473ffffffffffffffffffffffffffffffffffffffff19169390921692909217905533906005908a51600160a060020a0390811682526020820192909252604001600020805473ffffffffffffffffffffffffffffffffffffffff1916929091169190911790557f1cdab9b7375404c8490483148f1d38b48808ea06f22f1681cb03c82e78ee032b338e518a51604051600160a060020a03938416815291831660208301529091166040808301919091526060909101905180910390a15060019c9b505050505050505050505050565b600160a060020a03331660009081526002602052604081205415156108c357600080fd5b600160a060020a03331660009081526002602052604090205442116108e757600080fd5b600082116108f457600080fd5b33600160a060020a031660009081526000805160206111c983398151915260205260409020548290101561092757600080fd5b33600160a060020a031660009081526000805160206111c98339815191526020526040902054610957908361119f565b33600160a060020a031660008181526000805160206111c9833981519152602052604090819020929092559083905160006040518083038185876187965a03f19250505015156109a657600080fd5b600160a060020a03331660008181526000805160206111c98339815191526020526040808220547fefd91abfe4310153e87cd30f8b7acbffe1a17a76d51895ba45c759de197576219291869190518084600160a060020a03168152602001838152602001828152602001935050505060405180910390a2506001919050565b600160a060020a03828116600090815260056020526040812054909182913382169116148015610a715750600160a060020a038381166000908152600560205260409020543382169116145b1515610a7c57600080fd5b600160a060020a0385811660009081526001602090815260408083208885168452909152808220549286168252902054610ab69190611172565b600160a060020a0386811660008181526001602090815260408083208a86168085529083528184208490559489168084528184208490559483526005909152808220805473ffffffffffffffffffffffffffffffffffffffff1990811690915593825280822080549094169093559293509163a9059cbb9133918591516020015260405160e060020a63ffffffff8516028152600160a060020a0390921660048301526024820152604401602060405180830381600087803b1515610b7a57600080fd5b6102c65a03f11515610b8b57600080fd5b505050604051805190501515610ba057600080fd5b7fc11489bc0da5f677472803615340962519e2fc5a38ed06ecefc2f98cdaa1863a33858584604051600160a060020a039485168152928416602084015292166040808301919091526060820192909252608001905180910390a1506001949350505050565b600030835160208501516040860151606087015160808801518751602089015160408a015160608b015160808c015160a08d01516040516c01000000000000000000000000600160a060020a039d8e16810282529b8d168c026014820152998c168b0260288b0152978b168a02603c8a0152958a16890260508901529390981690960260648601526078850152609884019490945260b883019490945260d882019290925260f8810192909252610118820152610138016040518091039020905092915050565b6000808211610cda57600080fd5b600160a060020a038084166000908152600160209081526040808320339094168352929052205482901015610d0e57600080fd5b60065433600160a060020a0316600081815260026020908152604080832063ffffffff9095164201909455600381528382208690556000805160206111c983398151915290528290205490917ff457361047d1572a94cd6a3504b557fa28f53caf88d09ce3483970edf177b4a6918691869190518084600160a060020a0316600160a060020a03168152602001838152602001828152602001935050505060405180910390a250600192915050565b60006001856040517f19457468657265756d205369676e6564204d6573736167653a0a3332000000008152601c810191909152603c0160405180910390208585856040516000815260200160405260006040516020015260405193845260ff90921660208085019190915260408085019290925260608401929092526080909201915160208103908084039060008661646e5a03f11515610e5d57600080fd5b505060206040510351600160a060020a031686600160a060020a031614905095945050505050565b600034819011610e9457600080fd5b33600160a060020a031660009081526000805160206111c98339815191526020526040902054610ec49034611172565b600160a060020a03331660008181526000805160206111c9833981519152602052604080822084905591927fef09e15e9cfe21e04726b36e796649729fe37c3578ac2024cf82957bfd631d8192349190518084600160a060020a03168152602001838152602001828152602001935050505060405180910390a250600190565b600054600160a060020a031681565b600160209081526000928352604080842090915290825290205481565b600160a060020a0333166000908152600260205260408120541515610f9457600080fd5b600160a060020a0333166000908152600260205260409020544211610fb857600080fd5b600160a060020a0383161515610fcd57600080fd5b60008211610fda57600080fd5b600160a060020a03808416600090815260016020908152604080832033909416835292905220548290101561100e57600080fd5b600160a060020a038084166000908152600160209081526040808320339094168352929052205461103f908361119f565b600160a060020a03808516600081815260016020908152604080832033958616845290915280822094909455909263a9059cbb92918691516020015260405160e060020a63ffffffff8516028152600160a060020a0390921660048301526024820152604401602060405180830381600087803b15156110be57600080fd5b6102c65a03f115156110cf57600080fd5b5050506040518051905015156110e457600080fd5b600160a060020a038381166000908152600160209081526040808320339094168084529390915290819020547fefd91abfe4310153e87cd30f8b7acbffe1a17a76d51895ba45c759de197576219186918691518084600160a060020a0316600160a060020a03168152602001838152602001828152602001935050505060405180910390a250600192915050565b60008282018381101561118157fe5b9392505050565b600080828481151561119657fe5b04949350505050565b6000828211156111ab57fe5b50900390565b6040805190810160405260008082526020820152905600a6eef7e35abe7026729641147f7915573c7e97b47efa546f5f6e3230263bcb49a165627a7a723058204ceaa9cc85403b63c9e176451758bd974ffbefefcc1332251d2073e3f5937f250029",
  "source": "pragma solidity ^0.4.17;\n\n// This contract allows Matchers from being paid by providing information that allows\n// user from group A to connect to user from group B. \n\n//last compiled with soljson-v0.3.6-2016-08-29-b8060c5.js\n\ncontract SafeMath {\n    function safeMul(uint a, uint b) internal constant returns (uint256) {\n        uint c = a * b;\n        assert(a == 0 || c / a == b);\n        return c;\n    }\n\n    function safeDiv(uint a, uint b) internal constant returns (uint256) {\n        uint c = a / b;\n        return c;\n    }\n\n    function safeSub(uint a, uint b) internal constant returns (uint256) {\n        assert(b <= a);\n        return a - b;\n    }\n\n    function safeAdd(uint a, uint b) internal constant returns (uint256) {\n        uint c = a + b;\n        assert(c >= a);\n        return c;\n    }\n\n    function max64(uint64 a, uint64 b) internal constant returns (uint64) {\n        return a >= b ? a : b;\n    }\n\n    function min64(uint64 a, uint64 b) internal constant returns (uint64) {\n        return a < b ? a : b;\n    }\n\n    function max256(uint256 a, uint256 b) internal constant returns (uint256) {\n        return a >= b ? a : b;\n    }\n\n    function min256(uint256 a, uint256 b) internal constant returns (uint256) {\n        return a < b ? a : b;\n    }\n}\n\ncontract Token {\n\n    /// @return total amount of tokens\n    function totalSupply() constant returns (uint supply) {}\n\n    /// @param _owner The address from which the balance will be retrieved\n    /// @return The balance\n    function balanceOf(address _owner) constant returns (uint balance) {}\n\n    /// @notice send `_value` token to `_to` from `msg.sender`\n    /// @param _to The address of the recipient\n    /// @param _value The amount of token to be transferred\n    /// @return Whether the transfer was successful or not\n    function transfer(address _to, uint _value) returns (bool success) {}\n\n    /// @notice send `_value` token to `_to` from `_from` on the condition it is approved by `_from`\n    /// @param _from The address of the sender\n    /// @param _to The address of the recipient\n    /// @param _value The amount of token to be transferred\n    /// @return Whether the transfer was successful or not\n    function transferFrom(address _from, address _to, uint _value) returns (bool success) {}\n\n    /// @notice `msg.sender` approves `_addr` to spend `_value` tokens\n    /// @param _spender The address of the account able to transfer the tokens\n    /// @param _value The amount of wei to be approved for transfer\n    /// @return Whether the approval was successful or not\n    function approve(address _spender, uint _value) returns (bool success) {}\n\n    /// @param _owner The address of the account owning tokens\n    /// @param _spender The address of the account able to transfer the tokens\n    /// @return Amount of remaining tokens allowed to spent\n    function allowance(address _owner, address _spender) constant returns (uint remaining) {}\n\n    event Transfer(address indexed _from, address indexed _to, uint _value);\n    event Approval(address indexed _owner, address indexed _spender, uint _value);\n}\n\n\ncontract StandardToken is Token, SafeMath {\n\n    /*\n     *  Data structures\n     */\n    mapping (address => uint256) balances;\n    mapping (address => mapping (address => uint256)) allowed;\n    uint256 public totalSupply;\n\n    /*\n     *  Public functions\n     */\n    /// @dev Transfers sender's tokens to a given address. Returns success.\n    /// @param _to Address of token receiver.\n    /// @param _value Number of tokens to transfer.\n    /// @return Returns success of function call.\n    function transfer(address _to, uint256 _value)\n        public\n        returns (bool)\n    {\n        balances[msg.sender] = safeSub(balances[msg.sender], _value);\n        balances[_to] = safeAdd(balances[_to], _value);\n        Transfer(msg.sender, _to, _value);\n        return true;\n    }\n\n    /// @dev Allows allowed third party to transfer tokens from one address to another. Returns success.\n    /// @param _from Address from where tokens are withdrawn.\n    /// @param _to Address to where tokens are sent.\n    /// @param _value Number of tokens to transfer.\n    /// @return Returns success of function call.\n    function transferFrom(address _from, address _to, uint256 _value)\n        public\n        returns (bool)\n    {\n        balances[_from] = safeSub(balances[_from], _value);\n        allowed[_from][msg.sender] = safeSub(allowed[_from][msg.sender], _value);\n        balances[_to] = safeAdd(balances[_to], _value);\n        Transfer(_from, _to, _value);\n        return true;\n    }\n\n    /// @dev Sets approved amount of tokens for spender. Returns success.\n    /// @param _spender Address of allowed account.\n    /// @param _value Number of approved tokens.\n    /// @return Returns success of function call.\n    function approve(address _spender, uint256 _value)\n        public\n        returns (bool)\n    {\n        allowed[msg.sender][_spender] = _value;\n        Approval(msg.sender, _spender, _value);\n        return true;\n    }\n\n    /*\n     * Read functions\n     */\n    /// @dev Returns number of allowed tokens for given address.\n    /// @param _owner Address of token owner.\n    /// @param _spender Address of token spender.\n    /// @return Returns remaining allowance for spender.\n    function allowance(address _owner, address _spender)\n        constant\n        public\n        returns (uint256)\n    {\n        return allowed[_owner][_spender];\n    }\n\n    /// @dev Returns number of tokens owned by given address.\n    /// @param _owner Address of token owner.\n    /// @return Returns balance of owner.\n    function balanceOf(address _owner)\n        constant\n        public\n        returns (uint256)\n    {\n        return balances[_owner];\n    }\n}\n\n\ncontract ErosDiscoveryProtocol is SafeMath {\n\t\n\t// Bounds related events\n\t// event BoundwithdrawRequest(address indexed Matcher, uint256 _value);\n\t// event Boundwithdraw(address indexed Matcher, uint256 _value);\n\t// event Sentence(address indexed _from, address indexed _to, uint256 _value);\n\n\t// Bounty related events\n\tevent BountyDeposit(address token, address indexed user, uint _value, uint balance);\n\tevent BountyWithdrawRequest(address token, address indexed user, uint _value, uint balance);\n\tevent BountyWithdraw(address token, address indexed user, uint _value, uint balance);\n\tevent MatchFound(address matcher, address maker, address taker);\n\tevent BountyClaimed(address matcher, address maker, address taker, uint bounty);\n\n\t// 0x Order\n\tstruct Order {\n        uint expirationTimestampInSec;\n        bytes32 orderHash;\n    }\n\n\n\taddress public owner; //Contract owner\n\n\t// mapping (address => uint256) bounds; //Bounds for Matchers\n\t// mapping (address => uint256) boundsWithdrawUnlockPeriod;  //When matcher can unlock bounds funds\n\t// mapping (address => uint256) bonudsWithdrawApprovedValue; //When matcher can unlock bounds funds\n\n\tmapping (address => mapping (address => uint256)) public bounties; // Mapping of token addresses to mapping of account balances for\n\tmapping (address => uint256) bountyWithdrawUnlockPeriod;  //When user can unlock bounty funds\n\tmapping (address => uint256) bonutyWithdrawApprovedValue; //When user can unlock bounty funds\n\n\tmapping (address => address) orderVerificationContract; // Allow smart contract to specify their order verification protocol \n\tmapping (address => address) canClaimBounty; // Will say who can claim a current stake bounty\n\t\n\t// uint32 boundsWithdrawPendingPeriod = 30 days;    //_value of time before bounds can be withdrawn\n\tuint32 bountyWithdrawPendingPeriod = 30 minutes; //_value of time before bounties (matching fees) can be withdrawn\n\n\t// uint8 boundPenality = 50; // Percentage of bound lost when infractiong happen\n\n\tfunction ErosJuridistiction() {\n\t\towner = msg.sender;\n\t}\n\n\tmodifier ownerOnly() {\n\n        require(msg.sender == owner);\n        _;\n\t\n\t}\n\n\tmodifier bountyWithdrawAllowed() {\n\n\t\trequire(bountyWithdrawUnlockPeriod[msg.sender] != 0x0);\n\t\trequire(now > bountyWithdrawUnlockPeriod[msg.sender]);\n\t\t_;\n\n\t}\n\n\t//  ---------------------FEE/BOUNRTY DEPOSIT & WITHDRAWL---------------------------------\n\n\tfunction depositEtherBounty() public payable returns (bool success) {\n\t  \t\n\t  \trequire(msg.value > 0);\n\n\t    bounties[0][msg.sender] = safeAdd(bounties[0][msg.sender], msg.value);\n\t    BountyDeposit(0, msg.sender, msg.value, bounties[0][msg.sender]);\n\n\t    return true;\n\t}\n\n\n\tfunction depositTokenBounty(address _token, uint _value) public returns (bool success) {\n\n\t\trequire(_value > 0);\n\t    require(Token(_token).transferFrom(msg.sender, this, _value));\n\n\t    bounties[_token][msg.sender] = safeAdd(bounties[_token][msg.sender], _value);\n\t    BountyDeposit(_token, msg.sender, _value, bounties[_token][msg.sender]);\n\n\t    return true;\n\n\t}\n\n\t// Starting the timer to allow bounty withdraw in ETH\n\tfunction bountyWithdrawRequest(address _token, uint256 _value) public returns (bool success) {\n\n\t\t// address of ETH is 0\n\n\t\trequire(_value > 0);\n\t\trequire(bounties[_token][msg.sender] >= _value);\n\n\t\tbountyWithdrawUnlockPeriod[msg.sender]  = now + bountyWithdrawPendingPeriod;\n\t\tbonutyWithdrawApprovedValue[msg.sender] = _value;\n\n\t\tBountyWithdrawRequest(_token, msg.sender, _value, bounties[0][msg.sender]);\n\n\t\treturn true;\n\t}\n\n\n\t// Withdrwa ETH from bounty\n\tfunction bountyWithdrawEther(uint _value) public bountyWithdrawAllowed returns (bool success) {\n\t\trequire(_value > 0);\n\t    require(bounties[0][msg.sender] >= _value);\n\n\t    bounties[0][msg.sender] = safeSub(bounties[0][msg.sender], _value);\n\n\t    require(msg.sender.call.value(_value)());\n\t\tBountyWithdraw(0, msg.sender,_value, bounties[0][msg.sender]);\n\n  \t\treturn true;\n\t}\n\n\t// Withdraw tokens from bounty\n\tfunction bountyWithdrawToken(address _token, uint _value) public bountyWithdrawAllowed returns (bool success) {\n\t    require(_token != 0);\n\t    require(_value > 0);\n\t    require(bounties[_token][msg.sender] >= _value);\n\n\t    bounties[_token][msg.sender] = safeSub(bounties[_token][msg.sender], _value);\n\n\t    require(Token(_token).transfer(msg.sender,_value));\n\t\tBountyWithdraw(_token, msg.sender, _value, bounties[_token][msg.sender]);\n\n  \t\treturn true;\n\t}\n\n\t// Matcher claiming the bounties\n\tfunction bountyClaimToken(address _token, address _maker1, address _maker2) public constant returns (bool success){\n\n\t\tuint bounty;\n\n\t\trequire(canClaimBounty[_maker1] == msg.sender && canClaimBounty[_maker2] == msg.sender);\n\n\t\t// total bounty\n\t\tbounty = safeAdd(bounties[_token][_maker1], bounties[_token][_maker2]);\n\n\t\t// Delete bounties\n\t\tbounties[_token][_maker1] = 0;\n\t\tbounties[_token][_maker2] = 0;\n\n\t\t// Remove permission from taking bounties\n\t\tcanClaimBounty[_maker1] = 0x0;\n    \tcanClaimBounty[_maker2] = 0x0;\n\n\t\trequire(Token(_token).transfer(msg.sender, bounty));\n\n\t\tBountyClaimed(msg.sender, _maker1,  _maker2, bounty);\n\n\t\treturn true;\n\n\t}\n\n\t//  -----------------------ORDER VERIFICATION AND SETTLEMENT--------------------------\n\n\n\tfunction isValidSignature( address signer, bytes32 hash, uint8 v, \n\t \t\t\t\t\t\t   bytes32 r, bytes32 s ) public constant returns (bool success)\n    {\n        return signer == ecrecover( keccak256(\"\\x19Ethereum Signed Message:\\n32\", hash),\n            \t\t\t\t\t\tv, r, s  );\n    }\n\n    function getOrderHash(address[6] orderAddresses, uint[6] orderValues)\n        public\n        constant\n        returns (bytes32)\n    {\n        return keccak256(\n\t\t\t              address(this),\n\t\t\t              orderAddresses[0], // maker\n\t\t\t              orderAddresses[1], // taker\n\t\t\t              orderAddresses[2], // makerToken\n\t\t\t              orderAddresses[3], // takerToken\n\t\t\t              orderAddresses[4], // feeRecipient\n\t\t\t              orderValues[0],    // makerTokenAmount\n\t\t\t              orderValues[1],    // takerTokenAmount\n\t\t\t              orderValues[2],    // makerFee\n\t\t\t              orderValues[3],    // takerFee\n\t\t\t              orderValues[4],    // expirationTimestampInSec\n\t\t\t              orderValues[5]     // salt\n       \t\t\t\t     );\n    }\n\n    uint o1price;\n    uint o2price;\n\n\n    function settleMatchProposal( address[6] orderAddresses1,\n\t\t\t\t\t\t           uint[6] orderValues1,\n\t\t\t\t\t\t           uint8 v1,\n\t\t\t\t\t\t           bytes32 r1,\n\t\t\t\t\t\t           bytes32 s1,\n\t\t\t\t\t\t           address[6] orderAddresses2,\n\t\t\t\t\t\t           uint[6] orderValues2,\n\t\t\t\t\t\t           uint8 v2,\n\t\t\t\t\t\t           bytes32 r2,\n\t\t\t\t\t\t           bytes32 s2 ) public constant returns (bool success){\n\n    \tOrder memory o1 = Order({\n\t\t\t\t\t\t          expirationTimestampInSec: orderValues1[4],\n\t\t\t\t\t\t          orderHash: getOrderHash(orderAddresses1, orderValues1)\n\t\t\t\t\t\t\t     });\n\n\n    \tOrder memory o2 = Order({\n\t\t\t\t\t\t          expirationTimestampInSec: orderValues2[4],\n\t\t\t\t\t\t          orderHash: getOrderHash(orderAddresses2, orderValues2)\n\t\t\t\t\t\t\t    });\n\n    \t// Valid signature\n    \trequire(isValidSignature(orderAddresses1[0], o1.orderHash, v1, r1, s1));\n    \trequire(isValidSignature(orderAddresses2[0], o2.orderHash, v2, r2, s2));\n\n    \t// Valid value\n    \trequire(orderAddresses1[1]  == address(0) && orderAddresses2[1] == address(0));\n    \trequire(orderValues1[0] > 0 && orderValues1[1] > 0);\n    \trequire(orderValues2[0] > 0 && orderValues2[1] > 0);\n\n    \t// Valid timestamp\n    \trequire(block.timestamp >= o1.expirationTimestampInSec);\n    \trequire(block.timestamp >= o2.expirationTimestampInSec);\n\n    \t// Valid funds\n    \trequire(Token(orderAddresses1[2]).balanceOf(orderAddresses1[0]) >= orderValues1[0]);\n    \trequire(Token(orderAddresses2[2]).balanceOf(orderAddresses2[0]) >= orderValues2[0]);\n\n    \t// Compabtible tokens \n    \trequire(orderAddresses1[2] == orderAddresses2[3] && orderAddresses2[2] == orderAddresses1[3]);\n\n    \t// Value overlap \n    \to1price = safeDiv(orderValues1[0], orderValues1[1]);\n    \to2price = safeDiv(orderValues2[1], orderValues2[0]);\n\n    \t// Make sure there is an overlap in price\n    \trequire(o1price > o2price);\n\n    \t// Same smart contract\n    \trequire(orderAddresses1[5] == orderAddresses2[5]);\n\n    \t// Giving permission to Matcher from taking bounties\n    \tcanClaimBounty[orderAddresses1[0]] = msg.sender;\n    \tcanClaimBounty[orderAddresses2[0]] = msg.sender;\n\n    \t// \n    \tMatchFound(msg.sender, orderAddresses1[0], orderAddresses2[0]);\n\n    \treturn true;\n    }\n\n}\n\n\n\n    // Mapping a smart contract with its order validation smart contract\n    // function assignOrderValidationContract(address _mainContract, address _orderValidationContract) public return (bool success) {\n\n    //\texternalOwner = \n\n    //}\n\n\n\t//  ---------------------BOUNDS FOR MATCHER INTEGRETY ---------------------------------\n\t/*\n\tmodifier boundWithdrawAllowed() {\n\n\t\trequire(boundsWithdrawUnlockPeriod[msg.sender] != 0x0);\n\t\trequire(now > boundsWithdrawUnlockPeriod[msg.sender]);\n\t\t_;\n\n\t}\n\n\t// Deposit ETH in contract\n\tfunction depositBound() public payable returns(bool success) {\n\n\t\trequire(msg.value > 0);\n\n\t\t//Adding to current bound\n\t\tbounds[msg.sender] += bounds[msg.sender] + msg.value;\n\n\t\treturn true;\n\t}\n\n\t// Starting the timer to allow bound withdraw\n\tfunction boundWithdrawRequest(uint256 _value) public returns (bool success) {\n\n\t\trequire(_value > 0);\n\t\trequire(bounds[msg.sender] >= _value);\n\n\t\tboundsWithdrawUnlockPeriod[msg.sender] = now + boundsWithdrawPendingPeriod;\n\t\tbonudsWithdrawApprovedValue[msg.sender] = _value;\n\n\t\tBoundwithdrawRequest(msg.sender, _value);\n\n\t\treturn true;\n\t}\n\n\t// withdraw of bounds\n\tfunction boundWithdraw(uint256 _value) public boundWithdrawAllowed returns (bool success){\n\n\t\trequire(_value > 0);\n\t\trequire(bonudsWithdrawApprovedValue[msg.sender] >= _value);\n\n\t\t// Reset boundsWithdrawUnlockPeriod\n\t\tboundsWithdrawUnlockPeriod[msg.sender] = 0x0;\n\n\t\t// Updating bound of Matcher\n\t\tbounds[msg.sender] -= _value;\n\n\t\t// Sending value to matcher\n\t\trequire(msg.sender.send(_value));\n\n\t\t// Push event\n\t\tBoundwithdraw(msg.sender, _value);\n\n\t\treturn true;\n\n\t}\n\t*/\n",
  "sourcePath": "/home/phabc/Main/Programmation/Hackathons/ErosProtocol/erosContracts/contracts/ErosDiscoveryProtocol.sol",
  "schemaVersion": "1.0.0",
  "updatedAt": "2017-10-15T10:19:13.078Z"
}