{
  "contractName": "ErosJuridistiction",
  "abi": [
    {
      "constant": false,
      "inputs": [
        {
          "name": "_value",
          "type": "uint256"
        }
      ],
      "name": "boundWithdraw",
      "outputs": [
        {
          "name": "success",
          "type": "bool"
        }
      ],
      "payable": false,
      "stateMutability": "nonpayable",
      "type": "function"
    },
    {
      "constant": false,
      "inputs": [
        {
          "name": "_value",
          "type": "uint256"
        }
      ],
      "name": "boundWithdrawRequest",
      "outputs": [
        {
          "name": "success",
          "type": "bool"
        }
      ],
      "payable": false,
      "stateMutability": "nonpayable",
      "type": "function"
    },
    {
      "constant": true,
      "inputs": [],
      "name": "owner",
      "outputs": [
        {
          "name": "",
          "type": "address"
        }
      ],
      "payable": false,
      "stateMutability": "view",
      "type": "function"
    },
    {
      "constant": false,
      "inputs": [],
      "name": "depositBound",
      "outputs": [
        {
          "name": "success",
          "type": "bool"
        }
      ],
      "payable": true,
      "stateMutability": "payable",
      "type": "function"
    },
    {
      "inputs": [],
      "payable": false,
      "stateMutability": "nonpayable",
      "type": "constructor"
    },
    {
      "anonymous": false,
      "inputs": [
        {
          "indexed": true,
          "name": "Matcher",
          "type": "address"
        },
        {
          "indexed": false,
          "name": "_value",
          "type": "uint256"
        }
      ],
      "name": "BoundwithdrawRequest",
      "type": "event"
    },
    {
      "anonymous": false,
      "inputs": [
        {
          "indexed": true,
          "name": "Matcher",
          "type": "address"
        },
        {
          "indexed": false,
          "name": "_value",
          "type": "uint256"
        }
      ],
      "name": "Boundwithdraw",
      "type": "event"
    },
    {
      "anonymous": false,
      "inputs": [
        {
          "indexed": true,
          "name": "_from",
          "type": "address"
        },
        {
          "indexed": true,
          "name": "_to",
          "type": "address"
        },
        {
          "indexed": false,
          "name": "_value",
          "type": "uint256"
        }
      ],
      "name": "Sentence",
      "type": "event"
    }
  ],
  "bytecode": "0x606060405262278d006004556005805460ff19166032179055341561002357600080fd5b60008054600160a060020a033316600160a060020a03199091161790556102f98061004f6000396000f300606060405263ffffffff7c010000000000000000000000000000000000000000000000000000000060003504166313858f05811461005d5780631dd4e0d2146100875780638da5cb5b1461009d578063b6463bf7146100cc57600080fd5b341561006857600080fd5b6100736004356100d4565b604051901515815260200160405180910390f35b341561009257600080fd5b6100736004356101e9565b34156100a857600080fd5b6100b0610288565b604051600160a060020a03909116815260200160405180910390f35b610073610297565b600160a060020a03331660009081526002602052604081205415156100f857600080fd5b600160a060020a033316600090815260026020526040902054421161011c57600080fd5b6000821161012957600080fd5b600160a060020a0333166000908152600360205260409020548290101561014f57600080fd5b600160a060020a03331660008181526002602090815260408083208390556001909152908190208054859003905583156108fc0290849051600060405180830381858888f1935050505015156101a457600080fd5b33600160a060020a03167fa408be6b24cbcaa6820456ea63e275dbfbabd789b315819fe1eadf32f05b37bd8360405190815260200160405180910390a2506001919050565b60008082116101f757600080fd5b600160a060020a0333166000908152600160205260409020548290101561021d57600080fd5b600454600160a060020a03331660008181526002602090815260408083204290950190945560039052829020849055907fe70dd5e894a7a12f465b58ce7f80a9fb513a64f4cbd0a0634871c22102bb54049084905190815260200160405180910390a2506001919050565b600054600160a060020a031681565b6000348190116102a657600080fd5b50600160a060020a03331660009081526001602081905260409091208054348101019055905600a165627a7a723058208d3d2287a9c156540da5691bdfe675433061a54ee9536bca5f6d15906c401cf60029",
  "source": "pragma solidity ^0.4.17;\n\n// This is just a simple example of a coin-like contract.\n// It is not standards compatible and cannot be expected to talk to other\n// coin/token contracts. If you want to create a standards-compliant\n// token, see: https://github.com/ConsenSys/Tokens. Cheers!\n\ncontract ErosJuridistiction {\n\t\n\tevent BoundwithdrawRequest(address indexed Matcher, uint256 _value);\n\tevent Boundwithdraw(address indexed Matcher, uint256 _value);\n\tevent Sentence(address indexed _from, address indexed _to, uint256 _value);\n\n\taddress public owner; //Contract owner\n\n\tmapping (address => uint) bounds; //Bounds for Matchers\n\tmapping (address => uint) withdrawUnlockPeriod; //When user can unlock funds\n\tmapping (address => uint) withdrawApprovedValue; //When user can unlock funds\n\t\n\t\n\tuint256 pendingPeriod = 30 days; \n\tuint8 PENALITY = 50; // Percentage of bound lost when infractiong happen\n\n\tfunction ErosJuridistiction() {\n\t\towner = msg.sender;\n\t}\n\n\tmodifier ownerOnly() {\n\n        require(msg.sender == owner);\n        _;\n\n\t}\n\n\tmodifier withdrawAllowed() {\n\n\t\trequire(withdrawUnlockPeriod[msg.sender] != 0x0);\n\t\trequire(now > withdrawUnlockPeriod[msg.sender]);\n\t\t_;\n\n\t}\n\n\t// Deposit ETH in contract\n\tfunction depositBound() public payable returns(bool success) {\n\n\t\trequire(msg.value > 0);\n\n\t\t//Adding to current bound\n\t\tbounds[msg.sender] += bounds[msg.sender] + msg.value;\n\n\t\treturn true;\n\t}\n\n\t// Starting the timer to allow bound withdraw\n\tfunction boundWithdrawRequest(uint256 _value) public returns (bool success) {\n\n\t\trequire(_value > 0);\n\t\trequire(bounds[msg.sender] >= _value);\n\n\t\twithdrawUnlockPeriod[msg.sender] = now + pendingPeriod;\n\t\twithdrawApprovedValue[msg.sender] = _value;\n\n\t\tBoundwithdrawRequest(msg.sender, _value);\n\n\t\treturn true;\n\t}\n\n\t// withdraw of bounds\n\tfunction boundWithdraw(uint256 _value) public withdrawAllowed returns (bool success){\n\n\t\trequire(_value > 0);\n\t\trequire(withdrawApprovedValue[msg.sender] >= _value);\n\n\t\t// Reset withdrawUnlockPeriod\n\t\twithdrawUnlockPeriod[msg.sender] = 0x0;\n\n\t\t// Updating bound of Matcher\n\t\tbounds[msg.sender] -= _value;\n\n\t\t// Sending value to matcher\n\t\trequire(msg.sender.send(_value));\n\n\t\t// Push event\n\t\tBoundwithdraw(msg.sender, _value);\n\n\t\treturn true;\n\n\t}\n\t\n}\n",
  "sourcePath": "/home/phabc/Desktop/boundProofsPoC/contracts/ErosJurisdiction.sol",
  "schemaVersion": "1.0.0",
  "updatedAt": "2017-10-14T20:55:33.947Z"
}